:020000040800F2
:100000009004002001010008CF0E0008330E000804
:10001000CD0E000849010008C912000800000000C8
:10002000000000000000000000000000F30E0008C7
:100030004B01000800000000F10E0008F50E00085A
:100040001B0100081B0100081B0100081B01000820
:100050001B0100081B0100081B0100081B01000810
:100060001B0100081B0100081B0100081B01000800
:100070001B0100081B0100081B0100081B010008F0
:100080001B0100081B0100081B0100081B010008E0
:100090001B0100081B0100081B0100081B010008D0
:1000A0001B0100081B0100081B0100081B010008C0
:1000B0001B0100081B0100081B0100081B010008B0
:1000C0001B0100081B0100081B0100081B010008A0
:1000D0001B010008B1120008BD1200081B01000836
:1000E0001B0100081B0100081B010008DFF80CD0F1
:1000F00000F018F800480047E912000890040020BA
:100100000648804706480047FEE7FEE7FEE7FEE7B1
:10011000FEE7FEE7FEE7FEE7FEE7FEE76D0F0008FD
:10012000ED000008064C074D06E0E06840F00103D2
:1001300094E8070098471034AC42F6D3FFF7DAFF93
:10014000E013000800140008FEE7704710B590F8AF
:1001500021100024022903D00421816301243DE001
:1001600001680A6822F00E020A6001680A6822F03B
:1001700001020A601A4A0168914201D1012121E07D
:10018000174A1432914201D110211BE0144A28323F
:10019000914201D1891515E0114A3C32914201D1B9
:1001A00089140FE00E4A5032914202D14FF480314F
:1001B00008E00B4A6432914202D14FF4801101E011
:1001C0004FF08071064A083A5160012180F82110F1
:1001D000002180F82010416B01B18847204610BDF6
:1001E000080002402DE9F84FDFF890A100220AF143
:1001F000040B144601274FF00F090BF1040E00BF4A
:100200000B6807FA04F52B40AB4274D1DFF870C1DC
:100210004E68A6EB0C0866452BD00DDC032E34D0BF
:1002200005DC36B3012E19D0022E2FD11BE0112E82
:1002300016D0122E2AD119E0B8F5881F19D006DC85
:10024000B8F5803F15D0B8F5801F1FD111E0B8F583
:10025000001F0ED0B8F5041F18D10AE0CA6815E0D7
:10026000CA68121D12E0CA6808320FE0CA680C3270
:100270000CE08A682AB1012A4FF0080203D04561D8
:1002800004E0042202E0056100E00022FF2B01D817
:10029000064601E000F104064FEA840501D9A5F104
:1002A0002005D6F800C009FA05F82CEA080C02FA75
:1002B00005F54CEA050CC6F800C04D68ED0057D5B1
:1002C000304DAE6946F00106AE61AD6924F003061B
:1002D00005F0010500952C4D06EB050CDCF80850E7
:1002E000A6074FEA167809FA08F6B543274EB0423A
:1002F00002D1002610E03BE0254EB04201D101269C
:100300000AE0244EB04201D1022605E0224EB0425E
:1003100001D1032600E0042606FA08F62E43CCF8A5
:1003200008604D68DAF80060ED03554601D51E43BC
:1003300000E09E432E604D68DBF80060AD035D4633
:1003400001D51E4300E09E432E604D68DEF800603C
:10035000ED02754601D51E4300E09E432E604D68B8
:10036000AD020E4D2E6801D51E4300E09E432E6067
:10037000641C102CFFF444AFBDE8F88F000401406A
:100380000000111000100240000001400008014070
:10039000000C014000100140001401400C04014019
:1003A0000AB1016170470904FBE7000001480068D9
:1003B000704700000C00002002480168491C0160E1
:1003C000704700000C000020074810B5016841F09C
:1003D00010010160032000F08BF8002000F006F807
:1003E00000F018F8002010BD0020024010B50446AF
:1003F00007484FF47A710068B0FBF1F000F01FFB82
:1004000000222146501E00F053F8002010BD0000CD
:10041000000000201E4808B5816941F0010181619A
:10042000806900F001000090032000F061F80022D4
:1004300011466FF00B0000F03BF8002211466FF000
:100440000A0000F035F8002211466FF0090000F0B4
:100450002FF800221146501F00F02AF80022114602
:10046000101F00F025F800221146901E00F020F821
:1004700000221146501E00F01BF80648416821F08A
:10048000E0614160416841F00071416008BD0000D9
:10049000001002400000014000F01F0201219140C5
:1004A0004009800000F1E020C0F800117047000012
:1004B000F0B40E4B1B680C46C3F30223C3F10705CF
:1004C000042D00D90425191D072901D2002300E0BD
:1004D000DB1E012606FA05F1491E214099409E4087
:1004E000761E16403143F0BC00F0F2BC0CED00E08B
:1004F000064900F0070208684FF6FF03184040EA7B
:100500000220034A10430860704700000CED00E031
:100510000000FA052DE9F047DFF83C8105460E465C
:10052000D8F8000000F00700B0420CD2D8F8001054
:1005300021F007013143C8F80010D8F8000000F09E
:100540000700B04263D12878444C800705D5606825
:10055000A96820F0F000084360602878C00745D003
:100560006868012816D02168022816D0890700295A
:100570004DDA616821F0030101436160FFF716FF66
:100580006968074641F2883001290FD00229814667
:1005900019D027E021688903E9E78901E7E700BF6F
:1005A000FFF704FFC11B494501D918E08146606887
:1005B000C0F381000128F3D118E000BFFFF7F6FE79
:1005C000C11B49450BD86068C0F381000228F5D1F2
:1005D0000CE000BFFFF7EAFEC11B494502D903202A
:1005E000BDE8F087606810F00C0FF3D1D8F8001068
:1005F000404601F00701B1420BD9016821F0070123
:1006000031430160006800F00700B04201D00120D2
:10061000E6E72878400705D56068E96820F4E060DF
:10062000084360602878000706D56068296920F4CF
:10063000605040EAC100606000F03CF86168084A20
:10064000C1F30311515CC840064908600020FFF760
:10065000CDFE0020C4E70000002002400010024050
:10066000A81300080000002001480068704700003F
:10067000000000200448054900684968044AC1F3A5
:100680000221515CC8407047000000200010024069
:10069000B81300080448054900684968044AC1F3D2
:1006A000C221515CC8407047000000200010024089
:1006B000B813000810B512A385B00FCB8DE80F005A
:1006C00013A0144B006804905A68134802F00C0100
:1006D00004290FD008290DD1C2F38344D2031DF899
:1006E000041009D55A6804ABC2F340429A5CB0FBCF
:1006F000F2F0484305B010BD08484843FAE700004F
:1007000002030405060708090A0B0C0D0E0F101052
:10071000010200000010024000127A0000093D00B2
:100720002DE9F84F04460078B94DC00748D06868F5
:10073000C0F38100012807D06868C0F38100022857
:1007400009D16868C00306D52868800338D5606879
:1007500000286FD034E06068B0F5803F0BD010B156
:10076000B0F5A02F11D0286820F4803028602868C8
:1007700020F4802002E0286840F48030286060681F
:1007800088B1FFF713FE064609E0286840F4802090
:100790002860F0E7FFF70AFE801B642875D82868F8
:1007A0008003F7D50CE0FFF701FE064605E000BF29
:1007B000FFF7FCFD801B6428F0D828688003F7D47D
:1007C0002078944E80074FF001094FF000083BD588
:1007D000686810F00C0F07D06868C0F38100022829
:1007E00009D16868C00306D42868800714D5206939
:1007F00001281FD110E02069B0B1C6F80090FFF7C2
:10080000D5FD074605E000BFFFF7D0FDC01B02285D
:10081000C4D828688007F7D52868616920F0F800F7
:1008200040EAC10028600FE0C6F80080FFF7BEFD77
:10083000074606E0E9E000BFFFF7B8FDC01B02284D
:1008400023D828688007F7D4207800072CD5724871
:10085000A169D9B1C0F80090FFF7A8FD074604E0F0
:10086000FFF7A4FDC01B02280FD8686A8007F7D5E0
:100870006A484FF4FA510068B0FBF1F0009000BFF5
:100880000098411E0091FAD20EE080E0C0F800808E
:10089000FFF78CFD074604E0FFF788FDC01B022828
:1008A00075D8686A8007F7D42078400760D5E86972
:1008B0000027C00008D4E86940F08050E861E8698A
:1008C000012700F08050009055480168C90513D4F5
:1008D0000168834641F480710160FFF767FD82463D
:1008E00006E000BFFFF762FDA0EB0A0064284ED8C7
:1008F000DBF80000C005F5D5E06801280AD008B192
:10090000052813D0286A20F001002862286A20F008
:10091000040002E0286A40F001002862E06841F229
:10092000883B98B1FFF742FD82460BE0286A40F011
:1009300004002862EEE700BFFFF738FDA0EB0A01D4
:1009400059455AD8286A8007F6D50CE0FFF72EFDE6
:10095000824605E0FFF72AFDA0EB0A0159454CD875
:10096000286A8007F6D41FB1E86920F08050E8615A
:10097000E06988B36968C1F38101022945D0022882
:10098000C6F8608004D0FFF711FD044638E034E07B
:10099000FFF70CFD074604E0FFF708FDC01B022827
:1009A0002BD828688001F7D4206AB0F5803F05D1A4
:1009B0006868A16820F4003008436860D4E9080141
:1009C0000843696821F4741108436860C6F86090B0
:1009D000FFF7ECFC044606E015E000BFFFF7E6FC7D
:1009E000001B022809D828688001F7D50BE000BF5A
:1009F000FFF7DCFC001B022802D90320BDE8F88FBA
:100A000028688001F4D40020F8E70120F6E7000010
:100A100000100240000042428004424200000020D8
:100A2000007000404FF0E0210428086903D020F056
:100A300004000861704740F00400FAE7704710B501
:100A4000401EB0F1807F01D3012010BD4FF0E024A3
:100A500060610F21601700F03BFA0020A0610720C1
:100A60002061002010BD10B5FFF7E8FF10BD7047F2
:100A700070B5026804461068D168536910F00F0F12
:100A800051D003F0010501F4907635435DD0C207E3
:100A900005D0CA0503D5E26B42F00102E2634207CA
:100AA00005D5DA0703D0E26B42F00202E263820767
:100AB00005D5DA0703D0E26B42F00402E2630207D5
:100AC00005D5DA0703D0E26B42F00802E263E26B7D
:100AD000002A34D0800604D5880602D5204600F0CE
:100AE0007FFA20684069E16BC0F3801001F00801D3
:100AF0000143204624D000F065FA20684169490688
:100B00001AD5416921F040014161606BA0B11B49D8
:100B10004163606BFFF71AFB002810D0606B416BDC
:100B2000BDE87040084783060FD58B060DD52046DB
:100B3000BDE8704000F054BA2046FFF798FF70BD42
:100B4000FFF795FF0020E06370BD030606D50B0696
:100B500004D52046BDE8704000F046BB4006F3D502
:100B60004806F1D5D168204621F04001D16020210E
:100B700084F8391000F05CF970BD0000B50F000872
:100B800070B5040004D094F83900002510B106E0D7
:100B9000012070BD84F83850204600F023F824204E
:100BA00084F839002068C16821F40051C1602046F2
:100BB00000F062FA2068016921F490410161206827
:100BC000416921F02A0141612068C16841F4005166
:100BD000C160E563202084F8390084F83A000020E1
:100BE00070BD000070B5274E03680024264902201E
:100BF0000322264D86B0B3421ED18B6943F4804355
:100C00008B618969039201F4804104910102CDE96D
:100C1000001069462846FFF7E5FA2815CDE90004DB
:100C2000694628460294FFF7DDFA00221146252086
:100C3000FFF73EFC252020E0154EB3421FD1CB69C3
:100C400043F40033CB61C969039201F4003104918C
:100C50000421CDE9001069462846FFF7C3FA0820B1
:100C6000CDE90004694628460294FFF7BBFA00224A
:100C700011462620FFF71CFC2620FFF70DFC06B0CE
:100C800070BD000000380140001002400008014023
:100C90000044004090F83A30202B22D1F9B1F2B153
:100CA00090F83830012B1CD081628285C2850021EA
:100CB000C163222280F83A2080F838100168CA689F
:100CC00042F48072CA6001684A6942F001024A61D6
:100CD0000068C16841F02001C16000207047012018
:100CE000704702207047000010B54FF6FF730122D5
:100CF0000E490F4800F020F80C484FF400510278DC
:100D00000C48302A01D0012200E00022FFF748FB06
:100D1000012206490648FFF7BDFF05480122BDE84C
:100D2000104002494030FFF7B5BF0000040000202A
:100D300010000020001001402DE9F843044690F80F
:100D400039001F4616460D46202850D1A5B19EB148
:100D500094F8380001284AD0012084F838004FF078
:100D60000008C4F83C80212084F83900FFF71EFBFE
:100D7000A6848146E68426E00120BDE8F883E08C65
:100D8000401EE084A0684B46B0F5805F4FF0000243
:100D90004FF080012046009703D000F056FAE8B9E2
:100DA0000DE000F052FAC8B928882168C0F30800A5
:100DB0004860206908B16D1C05E0AD1C03E02168A6
:100DC00015F8010B4860E08C0028D8D14B46002272
:100DD00040212046009700F038FA08B10320CCE704
:100DE000202084F8390084F838800020C5E70220EC
:100DF000C3E790F83930202B18D1A9B1A2B190F8EF
:100E00003830012B12D001628284C2840021C16378
:100E1000212280F8392080F838100068C16841F03C
:100E20008001C16000207047012070470220704798
:100E30007047FEE72DE9F041214886B0816941F015
:100E400010018161816901F010010491816941F013
:100E500020018161816901F020010491816941F0E3
:100E600004018161816901F004010491816941F00B
:100E7000080181618069012200F00800114F5403CC
:100E8000049021463846FFF78BFA0122DFF83880BC
:100E9000D60231464046FFF783FA00940124032529
:100EA0006946384603950194FFF79CF9CDE9006443
:100EB000694640460395FFF795F906B0BDE8F08115
:100EC0000010024000100140000C0140FEE7704796
:100ED0000907090E002806DA00F00F0000F1E020F3
:100EE00080F8141D704700F1E02080F8001470476E
:100EF0007047704710B5FFF75FFABDE81040FFF785
:100F0000B2BD30B58FB001210804CDE90010002436
:100F1000029402250491CDE907504FF4E0100990A6
:100F20006846FFF7FDFB00B1FEE70F20CDE90A059B
:100F30004FF48060CDE90C4002210AA80E94FFF71F
:100F4000E9FA00B1FEE7FFF78FFB4FF47A71B0FBCF
:100F5000F1F0FFF774FD0420FFF764FD0022114655
:100F6000501EFFF7A5FA0FB030BD00000D48016814
:100F700041F00101016041680B4A11404160016884
:100F80000A4A11400160016821F480210160416832
:100F900021F4FE0141604FF41F0181600449C00348
:100FA00008607047001002400000FFF8FFFFF6FEE7
:100FB00008ED00E010B5406A0021C185C184FFF74B
:100FC00056FD10BD0168CA6822F49072CA600168BB
:100FD0004A6922F001024A61202180F83A107047E4
:100FE00010B590F83A10222901D0022010BD816876
:100FF000B1F5805F11D00169002901681FD04968EF
:1010000001F07F03816A4A1C82620B70C18D491E08
:101010000904090CC18518D02BE00269816A002AF5
:101020000268526805D0D2B20A80816A491C816286
:10103000ECE7C2F308020A80816A891CF7E74A6874
:10104000816A4B1C83620A70E0E70168CA6822F07B
:101050002002CA600168CA6822F48072CA6001680E
:101060004A6922F001024A61202180F83A10FFF714
:101070003BFE002010BD00002DE9F0410446006851
:101080000169E26821F44051114301612169A068BE
:101090000843616908432168CA6841F20C639A43B6
:1010A0000243CA6020684169A26921F4407111437A
:1010B00041614C4920686425322688423CD1FFF7C3
:1010C000E9FA00EBC00101EB001061688900B0FB98
:1010D000F1F7FFF7DFFA00EBC00101EB00106168E8
:1010E000B0468900B0FBF1F0B0FBF5F06FF01801ED
:1010F000484307EB800106EB0110B0FBF5F000F070
:10110000F006FFF7C7FA00EBC00101EB00106168C1
:101110008900B0FBF1F0B0FBF5F006EB0016FFF72D
:10112000B9FA00EBC00101EB001061688900B0FB67
:10113000F1F7FFF7AFFA3BE0FFF79CFA00EBC001D5
:1011400001EB001061688900B0FBF1F7FFF792FA3C
:1011500000EBC00101EB00106168B0468900B0FBF4
:10116000F1F0B0FBF5F06FF01801484307EB800198
:1011700006EB0110B0FBF5F000F0F006FFF77AFA8D
:1011800000EBC00101EB001061688900B0FBF1F0D9
:10119000B0FBF5F006EB0016FFF76CFA00EBC001B0
:1011A00001EB001061688900B0FBF1F7FFF762FA0C
:1011B00000EBC00101EB001061688900B0FBF1F0A9
:1011C000B0FBF5F06FF01801484307EB800108EB26
:1011D0000110B0FBF5F0216800F00F00304488608A
:1011E000BDE8F0810038014090F83910212901D084
:1011F000022070478168B1F5805F016A0BD04A1CFC
:101200000262026809785160C18C491E0904090C08
:10121000C1840ED017E009880268C1F3080151604B
:1012200001690029016A02D0491C0162ECE7891CAE
:10123000FBE70168CA6822F08002CA600068C168E2
:1012400041F04001C160002070472DE9F04198460F
:1012500017460E460446069D1DE0681C1BD02DB1A6
:10126000FFF7A4F8A0EB0800A84214D92068C168D1
:1012700021F4D071C1602068416921F00101416110
:10128000202084F8390084F83A00002084F83800DF
:101290000320BDE8F0812068006836EA000004D031
:1012A0000020B842D9D00020F3E70120F9E7000080
:1012B0000148FFF7DDBB0000100000200148FFF7E8
:1012C000D7BB000050000020FEE702E008C8121F54
:1012D00008C1002AFAD170477047002001E001C11F
:1012E000121F002AFBD17047FFF76EF8FFF709FEC7
:1012F000FFF7A0FD214820494FF4E13500240160AB
:10130000C0E901540C26C460C0E904468461C4618C
:10131000FFF736FC00B1FEE718481949403001607C
:10132000C0E90154C460C0E904468461C461FFF7A8
:1013300027FC00B1FEE713481E2241680F48FFF763
:1013400058FD01220F490D48FFF7A4FC28B10A23DC
:1013500007220DA10948FFF7EFFC084801220949BF
:101360004030FFF797FC28B10A2307220AA103485F
:10137000FFF7E2FCFEE7000000380140100000200B
:1013800000440040040000207573617274312045F0
:1013900052524F520D0A000075736172743220452B
:1013A00052524F520D0A00000000000000000000E1
:1013B00001020304060708090000000001020304FB
:1013C00068656C6C6F2C2074686973206973206683
:1013D000726F6D205553415254310D0A00000000C8
:1013E000001400080000002010000000CA120008CD
:1013F000101400081000002080040000DA12000819
:1014000000A24A0400000000C01300080000000011
:04000005080000ED02
:00000001FF
